:1000000007C1000033C1000031C100002FC1000052
:100010002DC100002BC1000029C1000027C1000034
:1000200025C1000023C1000021C100001FC1000044
:100030001DC100001BC1000019C1000060C3000009
:1000400015C1000013C1000011C100000FC1000064
:100050000DC100000BC1000009C1000006C3000073
:1000600005C10000CCC20000A1C20000FFC000001A
:10007000FDC00000FBC00000F9C00000F7C0000098
:10008000F5C00000F3C00000F1C00000EFC00000A8
:10009000EDC00000EBC00000E9C00000E7C00000B8
:1000A000E5C00000E3C00000E1C00000DFC00000C8
:1000B000DDC00000DBC00000D9C00000D7C00000D8
:1000C000D5C00000D3C00000D1C00000CFC00000E8
:1000D000CDC00000CBC00000C9C00000C7C00000F8
:1000E000C5C000007A047D046C0470047404B40478
:1000F000810485048B048F04930499049D04A10456
:10010000B404A704AB04AF0400000A0B02090C0DF1
:100110000E080703040100000000000000000000BA
:1001200000000000000000000000000000000000CF
:10013000000000001211100000000000000000008C
:1001400000000000000000000000000000000000AF
:100150002200250028002B002E003100340002016F
:100160000000050108010B01000021002400270008
:100170002A002D00300033000101000004010701B6
:100180000A0105050505070508080808020202021C
:100190000A0A080804040404010101010101010123
:1001A0000303030303030303040707070C0C0C0CEE
:1001B0000C0C0C0C020202020606060606060606D7
:1001C0000B0B0B0B0B0B0B0B010210202008081064
:1001D00020401020408002010201080402010102B7
:1001E0000408102040808040201008040201800490
:1001F00002018040201008040201080402010102EB
:100200000408102040800102040810204080A6034A
:1002100011241FBECFEFD1E2DEBFCDBF00E00CBF87
:1002200012E0A0E0B2E0E2EEFEE000E00BBF02C0B0
:1002300007900D92A031B107D9F723E0A0E1B2E019
:1002400001C01D92AE31B207E1F711E0C8E0D1E084
:1002500000E005C021970109802FFE01B6D4C73008
:10026000D10780E00807B1F7A8D239C6C9CE90E01F
:10027000FC01E853FE4F2491FC01EE57FE4F8491A0
:10028000882399F090E0880F991FFC01E859FE4FF0
:10029000A591B491FC01E25BFE4F859194918FB7DB
:1002A000F894EC91E22BEC938FBF08953FB7F8944C
:1002B0002091B200B89B16C02091B2008091140327
:1002C00090911503A0911603B09117030196A11DFB
:1002D000B11D8093140390931503A0931603B0935C
:1002E0001703B89A8091140390911503A0911603F7
:1002F000B0911703BA2FA92F982F8827BC01CD01E1
:10030000620F711D811D911D609318037093190375
:1003100080931A0390931B033FBF0895CF92DF92FF
:10032000EF92FF920F931F93CF93DF936C017A01AB
:100330008B01C0E0D0E0CE15DF0589F0D8016D91CA
:100340008D01D601ED91FC910190F081E02DC60167
:100350001995892B11F47E0102C02196ECCFC701BB
:10036000DF91CF911F910F91FF90EF90DF90CF9091
:100370000895FC01918D828D981761F0828DDF01C7
:10038000A80FB11D5D968C91928D9F5F9F73928F88
:1003900090E008958FEF9FEF0895FC01918D828D7D
:1003A000981731F0828DE80FF11D858D90E008954A
:1003B0008FEF9FEF0895FC01918D228D892F90E0A2
:1003C000805C9F4F821B91098F739927089587E75F
:1003D00092E0F1DF21E0892B09F420E0822F0895DB
:1003E000FC01848DDF01A80FB11DA35ABF4F2C91D2
:1003F000848D90E001968F739927848FA689B789A1
:100400002C93A089B1898C9180648C93938D848D79
:10041000981306C00288F389E02D80818F7D808348
:100420000895EF92FF920F931F93CF93DF93EC0108
:1004300081E0888F9B8D8C8D981305C0E889F989A0
:10044000808185FD23C0F62E0B8D10E00F5F1F4FBE
:100450000F731127E02E8C8DE8120BC00FB607FC2E
:10046000FACFE889F989808185FFF5CFCE01B8DF21
:10047000F2CF8B8DFE01E80FF11DE35AFF4FF082A2
:100480000B8FEA89FB898081806207C0EE89FF8932
:100490006083E889F98980818064808381E090E0CD
:1004A000DF91CF911F910F91FF90EF900895CF931F
:1004B000DF93EC01888D8823C1F0EA89FB89808174
:1004C00085FD05C0A889B9898C9186FD0EC00FB63F
:1004D00007FCF5CF808185FFF2CFA889B9898C917F
:1004E00085FFEDCFCE017CDFE8CFDF91CF9108957E
:1004F00080E090E0892B19F06ADF811125C080E04F
:1005000090E0892B41F080E090E0892B21F00E945F
:10051000000081111CC080E090E0892B41F080E058
:1005200090E0892B21F00E940000811113C080E02F
:1005300090E0892BA1F080E090E0892B81F00E946F
:10054000000081110AC008950E940000D8CF0E94C7
:100550000000E1CF0E940000EACF0C940000089553
:100560003FB7F8948091150290911602A09117025E
:10057000B091180226B5A89B05C02F3F19F001962F
:10058000A11DB11D3FBFBA2FA92F982F8827820F19
:10059000911DA11DB11DBC01CD0142E0660F771F69
:1005A000881F991F4A95D1F7089595D41F920F92ED
:1005B0000FB60F9211240BB60F922F933F934F93C8
:1005C0005F936F937F938F939F93AF93BF93EF93BB
:1005D000FF9387E792E004DFFF91EF91BF91AF9126
:1005E0009F918F917F916F915F914F913F912F914B
:1005F0000F900BBE0F900FBE0F901F9018951F927B
:100600000F920FB60F9211240BB60F922F938F9368
:100610009F93EF93FF93E0918702F091880280818E
:10062000E0918D02F0918E0282FD12C09081809146
:1006300090028F5F8F7320919102821751F0E091A9
:100640009002F0E0E958FD4F958F8093900201C031
:100650008081FF91EF919F918F912F910F900BBE11
:100660000F900FBE0F901F9018951F920F920FB60C
:100670000F9211242F933F938F939F93AF93BF9328
:100680008091110290911202A0911302B091140274
:100690003091100223E0230F2D3720F40196A11D85
:1006A000B11D05C026E8230F0296A11DB11D2093A0
:1006B00010028093110290931202A0931302B09340
:1006C00014028091150290911602A0911702B09128
:1006D00018020196A11DB11D809315029093160278
:1006E000A0931702B0931802BF91AF919F918F9181
:1006F0003F912F910F900FBE0F901F9018951F9252
:100700000F920FB60F9211240BB60F928F939F93F7
:10071000AF93BF93EF93FF93E4E1F3E08081918186
:10072000A281B3810196A11DB11D80839183A28313
:10073000B383FF91EF91BF91AF919F918F910F90F4
:100740000BBE0F900FBE0F901F901895E7E7F2E0D9
:100750001382128288EE93E0A0E0B0E08483958358
:10076000A683B78384E092E09183808385EC90E058
:100770009587848784EC90E09787868780EC90E06B
:10078000918B808B81EC90E0938B828B82EC90E05C
:10079000958B848B86EC90E0978B868B118E128ED6
:1007A000138E148EE4E1F3E0108211821282138220
:1007B00014821582168217820895789484B5826017
:1007C00084BD84B5816084BD85B5826085BD85B5F5
:1007D000816085BD80916E00816080936E00109273
:1007E00081008091810082608093810080918100EE
:1007F000816080938100809180008160809380007F
:100800008091B10084608093B1008091B0008160DC
:100810008093B000809191008260809391008091DC
:10082000910081608093910080919000816080931D
:1008300090008091A10082608093A1008091A1002E
:1008400081608093A1008091A00081608093A000CE
:10085000809121018260809321018091210181603A
:1008600080932101809120018160809320018091FB
:100870007A00846080937A0080917A00826080930D
:100880007A0080917A00816080937A0080917A006A
:10089000806880937A001092C1008AE0E8DC8DE0E5
:1008A000E6DCE2E1F1E04491E2EDF1E02491ECE8F4
:1008B000F1E09491992309F465C0442309F454C0EC
:1008C00050E0FA013197E231F10508F04DC0882778
:1008D000EE58FF4F8F4F79C1809180008F7707C00E
:1008E000809180008F7D03C080918000877F8093FE
:1008F00080003AC084B58F7702C084B58F7D84BDF7
:1009000033C08091B0008F7703C08091B0008F7D9D
:100910008093B00029C0809190008F7707C08091AC
:1009200090008F7D03C080919000877F809390001E
:100930001BC08091A0008F7707C08091A0008F7DA1
:1009400003C08091A000877F8093A0000DC080919C
:1009500020018F7707C0809120018F7D03C0809197
:100960002001877F80932001E92FF0E0EE0FFF1F29
:10097000E25BFE4FA591B4918FB7F894EC912E2BCA
:100980002C938FBFE0918702F091880282E08083F0
:10099000E0918302F09184021082E0918502F0914F
:1009A000860280E1808310928F02E0918B02F091A9
:1009B0008C0286E08083E0918902F0918A02808136
:1009C00080618083E0918902F0918A028081886051
:1009D0008083E0918902F0918A028081806880831F
:1009E000E0918902F0918A0280818F7D80838091DD
:1009F000B00080931C038091B10080931D0380910F
:100A0000B100887F82608093B10080917000816026
:100A1000809370008091B0008C7F8093B0008091B3
:100A2000B100877F8093B10083E590E090931A0234
:100A30008093190200E010E0C1E0D0E0BE010D2E6D
:100A4000000C880B990B34D12DEC3CEC4CEC5DE3A5
:100A5000DFD120E030E046EA52E4DAD19B01AC017C
:100A6000F801E95BFD4F6483758386839783C80132
:100A7000855E9D4F7C0160E070E086EA92E4ADD037
:100A8000F701648375838683978321960C5F1F4FDC
:100A9000CB30D10599F6C0E0D0E008DC4B015C0119
:100AA0002C9A109273021092740210927502109296
:100AB00076026B017C018E01095B1D4F6091730210
:100AC000709174028091750290917602EFD0F801D6
:100AD0002481358146815781E5D087FF17C0E6DB49
:100AE0006B017C01CB018819990997FD01969595B9
:100AF0008795092E000CAA0BBB0B80937302909371
:100B00007402A0937502B0937602D8CF2C981092FD
:100B100073021092740210927502109276028E0186
:100B2000055E1D4F60917302709174028091750291
:100B300090917602BBD0F80124813581468157819E
:100B4000B1D087FF17C0B2DB6C197D0977FF02C0F7
:100B50006F5F7F4FCB0195958795092E000CAA0BEF
:100B6000BB0B8093730290937402A0937502B093B1
:100B70007602D8CF2496C832D10509F08ECFF0DCAA
:100B80004B015C0184E6C82ED12CE12CF12CE8DC71
:100B9000DC01CB0188199909AA09BB09883E934059
:100BA000A105B10558F0F1E0CF1AD108E108F1082C
:100BB00028EE820E23E0921EA11CB11CC114D104A8
:100BC000E104F10421F794DC66CFEE0FFF1F881FCC
:100BD0008BBF0790F691E02D19945058BB27AA2798
:100BE0000ED0DCC0CDD030F0D2D020F031F49F3F19
:100BF00011F41EF4C2C00EF4E095E7FBB8C0E92F73
:100C0000DED080F3BA17620773078407950718F0E0
:100C100071F49EF5F6C00EF4E0950B2EBA2FA02DC0
:100C20000B01B90190010C01CA01A0011124FF2799
:100C3000591B99F0593F50F4503E68F11A16F04094
:100C4000A22F232F342F4427585FF3CF4695379593
:100C50002795A795F0405395C9F77EF41F16BA0B58
:100C6000620B730B840BBAF09150A1F0FF0FBB1F06
:100C7000661F771F881FC2F70EC0BA0F621F731F4F
:100C8000841F48F4879577956795B795F7959E3FAC
:100C900008F0B3CF9395880F08F09927EE0F97953A
:100CA0008795089540D008F481E00895E89409C03C
:100CB00097FB3EF490958095709561957F4F8F4F8F
:100CC0009F4F9923A9F0F92F96E9BB279395F695A5
:100CD000879577956795B795F111F8CFFAF4BB0F23
:100CE00011F460FF1BC06F5F7F4F8F4F9F4F16C087
:100CF000882311F096E911C0772321F09EE8872F11
:100D0000762F05C0662371F096E8862F70E060E0CC
:100D10002AF09A95660F771F881FDAF7880F969545
:100D2000879597F90895990F0008550FAA0BE0E8E9
:100D3000FEEF16161706E807F907C0F0121613069D
:100D4000E407F50798F0621B730B840B950B39F4DD
:100D50000A2661F0232B242B252B21F408950A2643
:100D600009F4A140A6958FEF811D811D089597F983
:100D70009F6780E870E060E008959FEF80EC089541
:100D800000240A941616170618060906089500246A
:100D90000A9412161306140605060895092E0394E4
:100DA000000C11F4882352F0BB0F40F4BF2B11F458
:100DB00060FF04C06F5F7F4F8F4F9F4F089557FDB7
:100DC0009058440F551F59F05F3F71F04795880FB9
:100DD00097FB991F61F09F3F79F087950895121650
:100DE00013061406551FF2CF4695F1DF08C01616FC
:100DF00017061806991FF1CF8695710561050894AD
:100E00000895E894BB2766277727CB0197F90895C3
:100E10000BD0C4CFB5DF28F0BADF18F0952309F066
:100E2000A6CFABCF1124EECFCADFA0F3959FD1F3AD
:100E3000950F50E0551F629FF001729FBB27F00D88
:100E4000B11D639FAA27F00DB11DAA1F649F6627DD
:100E5000B00DA11D661F829F2227B00DA11D621F2C
:100E6000739FB00DA11D621F839FA00D611D221FE6
:100E7000749F3327A00D611D231F849F600D211DCA
:100E8000822F762F6A2F11249F5750408AF0E1F06D
:100E900088234AF0EE0FFF1FBB1F661F771F881FB6
:100EA00091505040A9F79E3F510570F060CFAACFF6
:100EB0005F3FECF3983EDCF3869577956795B795A1
:100EC000F795E7959F5FC1F7FE2B880F911D9695CB
:100ED000879597F9089581E090E0F89400C0F89420
:020EE000FFCF42
:100EE2000000000011028E01DB01B901CD015702A1
:00000001FF
