:1000000014C1000040C100003EC100003CC100001E
:100010003AC1000038C1000036C1000034C1000000
:1000200032C1000030C100002EC100002CC1000010
:100030002AC1000028C1000026C1000024C1000020
:1000400022C1000020C100001EC100001CC1000030
:100050001AC1000018C1000016C10000DDC1000077
:1000600012C1000010C100000EC100000CC1000050
:100070000AC1000008C1000006C1000004C1000060
:1000800002C1000000C10000FEC00000FCC0000072
:10009000FAC00000F8C00000F6C00000F4C0000084
:1000A000F2C00000F0C00000EEC00000ECC0000094
:1000B000EAC00000E8C00000E6C00000E4C00000A4
:1000C000E2C00000E0C00000DEC00000DCC00000B4
:1000D000DAC00000D8C00000D6C00000D4C00000C4
:1000E000D2C000007D0180016F0173017901B70169
:1000F000840188018E01920196019C01A001A40156
:10010000B701AA01AE01B2010000200023002600C1
:1001100029002C002F00320000010000030106011D
:10012000090100000A0B02090C0D0E080703040167
:1001300000000000000000000000000000000000BF
:10014000000000000000000000000000000012118C
:10015000100000000000000000000000000000008F
:100160000000000000000000000022002500280020
:100170002B002E00310034000201000005010801AF
:100180000B0100002100240027002A002D00300070
:10019000330001010000040107010A0105050505FE
:1001A000070508080808020202020A0A08080404EF
:1001B000040401010101010101010303030303031D
:1001C0000303040707070C0C0C0C0C0C0C0C0202AC
:1001D000020206060606060606060B0B0B0B0B0BA9
:1001E0000B0B010210202008081020401020408036
:1001F00002010201080402010102040810204080EB
:100200008040201008040201800402018040201078
:1002100008040201080402010102040810204080C1
:100220000102040810204080A50311241FBECFEF57
:10023000D1E2DEBFCDBF00E00CBF12E0A0E0B2E033
:10024000E8E9F7E000E00BBF02C007900D92A8308C
:10025000B107D9F722E0A8E0B2E001C01D92A935AC
:10026000B207E1F711E0C5E1D1E000E005C0219758
:100270000109802FFE0186D2C431D10780E0080732
:10028000B1F714D187C2BCCE90E0FC01EE51FE4F15
:100290002491FC01E456FE4F8491882399F090E06C
:1002A000880F991FFC01EE57FE4FA591B491FC01F8
:1002B000E859FE4F859194918FB7F894EC91E22B19
:1002C000EC938FBF089590E0FC013197E231F10586
:1002D00008F04DC08827EE58FF4F8F4F53C28091D2
:1002E00080008F7703C0809180008F7D8093800095
:1002F000089580918000877FF9CF84B58F7702C001
:1003000084B58F7D84BD08958091B0008F7703C040
:100310008091B0008F7D8093B0000895809190000F
:100320008F7707C0809190008F7D03C080919000EF
:10033000877F8093900008958091A0008F7707C0F9
:100340008091A0008F7D03C08091A000877F809363
:10035000A0000895809120018F7707C0809120012F
:100360008F7D03C080912001877F809320010895B5
:100370001F93CF93DF93282F30E0F901EE5DFE4FFE
:100380008491F901EE51FE4FD491F901E456FE4FEC
:10039000C491CC23C1F0162F811195DFEC2FF0E032
:1003A000EE0FFF1FE859FE4FA591B4918FB7F89457
:1003B000111105C09C91ED2FE095E92302C0EC914D
:1003C000ED2BEC938FBFDF91CF911F9108953FB735
:1003D000F8948091090290910A02A0910B02B091C9
:1003E0000C0226B5A89B05C02F3F19F00196A11D50
:1003F000B11D3FBFBA2FA92F982F8827820F911DBB
:10040000A11DB11DBC01CD0142E0660F771F881F01
:10041000991F4A95D1F708951F920F920FB60F9228
:1004200011242F933F938F939F93AF93BF9380910A
:100430004D0290914E02A0914F02B0915002309126
:10044000080223E0230F2D3720F40196A11DB11DD2
:1004500005C026E8230F0296A11DB11D20930802B6
:1004600080934D0290934E02A0934F02B09350029E
:100470008091090290910A02A0910B02B0910C02A6
:100480000196A11DB11D8093090290930A02A093C9
:100490000B02B0930C02BF91AF919F918F913F914E
:1004A0002F910F900FBE0F901F901895789484B5E0
:1004B000826084BD84B5816084BD85B5826085BD60
:1004C00085B5816085BD80916E00816080936E00EE
:1004D00010928100809181008260809381008091E0
:1004E0008100816080938100809180008160809391
:1004F00080008091B10084608093B1008091B00051
:1005000081608093B000809191008260809391001F
:100510008091910081608093910080919000816032
:10052000809390008091A10082608093A1008091CF
:10053000A10081608093A1008091A00081608093E0
:10054000A00080912101826080932101809121018E
:10055000816080932101809120018160809320013E
:1005600080917A00846080937A0080917A00826022
:1005700080937A0080917A00816080937A008091E4
:100580007A00806880937A001092C10050E0E52ED6
:1005900052E0F52ECDE0D2E000E010E065E0A62EBE
:1005A000B12C88248394912CDD24D394F70181917C
:1005B0007F01282F30E03983288300FF03C09B820E
:1005C0008A8202C0BB82AA82DC821E821D825CDE1D
:1005D0000F5F1F4F27960830110541F78DE054DE5D
:1005E0009FE2892E91E0992E2FEEE22E21E0F22E4D
:1005F00039EAC32E31E0D32E40E0A42E40E0B42EE1
:1006000033243394E4DE2B013C0160934902709360
:100610004A0280934B0290934C0280914502909144
:100620004602A0914702B091480293018201081B43
:10063000190B2A0B3B0B0A3F11052105310508F464
:100640004FC001E112E0CDE0D2E08D819E810196A4
:100650009E838D83F8012081222339F02A813B81FA
:10066000821793074CF0108207C08436910524F05E
:10067000F80130821E821D82F8016081888178DE57
:100680002796095F1F4FF2E0C534DF07F1F6F4014A
:100690008491F701D491F601C491CC2399F0811192
:1006A00012DEEC2FF0E0EE0FFF1FE85FFE4FA5918A
:1006B000B4918C91D82391E080E009F490E0692F07
:1006C000782F02C060E070E0F1E06F278DE050DE2F
:1006D0004092450250924602609247027092480250
:1006E0002FB7F89480914D0290914E02A0914F0245
:1006F000B09150022FBF8093550290935602A09361
:100700005702B093580240915102509152026091A9
:100710005302709154028C019D01041B150B260B92
:10072000370B043611052105310540F08093510245
:1007300090935202A0935302B0935402A114B104B7
:1007400009F460CF0E9400005BCF2FB7F89480912E
:100750004D0290914E02A0914F02B09150022FBFD6
:100760008093550290935602A0935702B09358027B
:100770002EDE6093490270934A0280934B0290935D
:100780004C020895EE0FFF1F881F8BBF0790F69154
:08079000E02D1994F894FFCF4D
:0807980002030506090A0B0C1F
:00000001FF
