:1000000014C1000040C100003EC100003CC100001E
:100010003AC1000038C1000036C1000034C1000000
:1000200032C1000030C100002EC100002CC1000010
:100030002AC1000028C1000026C1000024C1000020
:1000400022C1000020C100001EC100001CC1000030
:100050001AC1000018C1000016C10000ADC40000A4
:1000600012C1000073C4000048C400000CC10000AD
:100070000AC1000008C1000006C1000004C1000060
:10008000E5C4000000C10000FEC00000FCC000008C
:10009000FAC00000F8C00000F6C00000F4C0000084
:1000A000F2C00000F0C00000EEC00000ECC0000094
:1000B000EAC00000E8C00000E6C00000E4C00000A4
:1000C000E2C00000E0C00000DEC00000DCC00000B4
:1000D000DAC00000D8C00000D6C00000D4C00000C4
:1000E000D2C000009F02A202910295029B02D90297
:1000F000A602AA02B002B402B802BE02C202C6023E
:10010000D902CC02D002D402000020002300260035
:1001100029002C002F00320000010000030106011D
:10012000090100000A0B02090C0D0E080703040167
:1001300000000000000000000000000000000000BF
:10014000000000000000000000000000000012118C
:10015000100000000000000000000000000000008F
:100160000000000000000000000022002500280020
:100170002B002E00310034000201000005010801AF
:100180000B0100002100240027002A002D00300070
:10019000330001010000040107010A0105050505FE
:1001A000070508080808020202020A0A08080404EF
:1001B000040401010101010101010303030303031D
:1001C0000303040707070C0C0C0C0C0C0C0C0202AC
:1001D000020206060606060606060B0B0B0B0B0BA9
:1001E0000B0B010210202008081020401020408036
:1001F00002010201080402010102040810204080EB
:100200008040201008040201800402018040201078
:1002100008040201080402010102040810204080C1
:100220000102040810204080520711241FBECFEFA6
:10023000D1E2DEBFCDBF00E00CBF12E0A0E0B2E033
:10024000EEEAFFE000E00BBF02C007900D92A4377A
:10025000B107D9F723E0A4E7B2E001C01D92A432B0
:10026000B207E1F711E0C5E1D1E000E005C0219758
:100270000109802FFE0174D6C431D10780E0080740
:10028000B1F711D492C6BCCE90E0FC01EE51FE4F06
:100290002491FC01E456FE4F8491882399F090E06C
:1002A000880F991FFC01EE57FE4FA591B491FC01F8
:1002B000E859FE4F859194918FB7F894EC91E22B19
:1002C000EC938FBF0895CF92DF92EF92FF920F933E
:1002D0001F93CF93DF936C017A018B01C0E0D0E0D4
:1002E000CE15DF0589F0D8016D918D01D601ED9114
:1002F000FC910190F081E02DC6011995892B11F434
:100300007E0102C02196ECCFC701DF91CF911F91F2
:100310000F91FF90EF90DF90CF900895FC01918DA9
:10032000828D981761F0828DDF01A80FB11D5D9657
:100330008C91928D9F5F9F73928F90E008958FEFC5
:100340009FEF0895FC01918D828D981731F0828D79
:10035000E80FF11D858D90E008958FEF9FEF0895D0
:10036000FC01918D228D892F90E0805C9F4F821B34
:1003700091098F739927089589E792E0F1DF21E0D1
:10038000892B09F420E0822F0895FC01848DDF0180
:10039000A80FB11DA35ABF4F2C91848D90E00196F8
:1003A0008F739927848FA689B7892C93A089B189E7
:1003B0008C9180648C93938D848D981306C00288F1
:1003C000F389E02D80818F7D80830895EF92FF92E5
:1003D0000F931F93CF93DF93EC0181E0888F9B8D68
:1003E0008C8D981305C0E889F989808185FD23C02B
:1003F000F62E0B8D10E00F5F1F4F0F731127E02EAD
:100400008C8DE8120BC00FB607FCFACFE889F9898A
:10041000808185FFF5CFCE01B8DFF2CF8B8DFE0155
:10042000E80FF11DE35AFF4FF0820B8FEA89FB8939
:100430008081806207C0EE89FF896083E889F9893D
:1004400080818064808381E090E0DF91CF911F9173
:100450000F91FF90EF900895CF93DF93EC01888D7B
:100460008823C1F0EA89FB89808185FD05C0A889C0
:10047000B9898C9186FD0EC00FB607FCF5CF80813F
:1004800085FFF2CFA889B9898C9185FFEDCFCE0188
:100490007CDFE8CFDF91CF91089580E090E0892B59
:1004A00019F06ADF811125C080E090E0892B41F0CE
:1004B00080E090E0892B21F00E94000081111CC097
:1004C00080E090E0892B41F080E090E0892B21F0E2
:1004D0000E940000811113C080E090E0892BA1F000
:1004E00080E090E0892B81F00E94000081110AC019
:1004F00008950E940000D8CF0E940000E1CF0E9422
:100500000000EACF0C940000089590E0FC013197C0
:10051000E231F10508F04DC08827EE58FF4F8F4FAC
:100520001FC5809180008F7703C0809180008F7DF0
:1005300080938000089580918000877FF9CF84B5F3
:100540008F7702C084B58F7D84BD08958091B000FF
:100550008F7703C08091B0008F7D8093B0000895A5
:10056000809190008F7707C0809190008F7D03C0AD
:1005700080919000877F8093900008958091A000E3
:100580008F7707C08091A0008F7D03C08091A0006D
:10059000877F8093A0000895809120018F7707C006
:1005A000809120018F7D03C080912001877F8093FF
:1005B00020010895CF93DF93EFE2F1E08491EFEE15
:1005C000F1E0D491E9EAF1E0C491CC2389F0811102
:1005D0009CDFEC2FF0E0EE0FFF1FE85FFE4FA591D0
:1005E000B491EC91ED2381E090E021F480E002C031
:1005F00080E090E0DF91CF9108951F93CF93DF9338
:10060000282F30E0F901EE5DFE4F8491F901EE51A3
:10061000FE4FD491F901E456FE4FC491CC23C1F0B2
:10062000162F811172DFEC2FF0E0EE0FFF1FE8595B
:10063000FE4FA591B4918FB7F894111105C09C910C
:10064000ED2FE095E92302C0EC91ED2BEC938FBFE9
:10065000DF91CF911F9108953FB7F8948091750273
:1006600090917602A0917702B091780226B5A89B6E
:1006700005C02F3F19F00196A11DB11D3FBFBA2F34
:10068000A92F982F8827820F911DA11DB11DBC0194
:10069000CD0142E0660F771F881F991F4A95D1F759
:1006A00008958F929F92AF92BF92CF92DF92EF9276
:1006B000FF92D2DF4B015C018CE2C82EDD24D39483
:1006C000E12CF12CC9DFDC01CB0188199909AA09B9
:1006D000BB09883E9340A105B10558F021E0C21A3C
:1006E000D108E108F10888EE880E83E0981EA11C6D
:1006F000B11CC114D104E104F10421F7FF90EF9083
:10070000DF90CF90BF90AF909F908F900895CF9241
:10071000DF92EF92FF920F931F93CF938C016A01A8
:100720007B01DB01CA010197A109B1098038944816
:10073000AE41B10508F03EC09A01AB016EEF7FEF0C
:1007400081E090E0DCD39B01AC0160E074E284EFD7
:1007500090E0E4D3C0E0EC2FF0E0EE0FFF1FE8598B
:10076000FD4F80819181CF5F82179307A0F3A7018E
:100770009601220F331F441F551FEC2FF0E0EE0FA0
:10078000FF1FE859FD4FA081B18101D49B01AC014D
:1007900060E074E284EF90E0C1D3F801EA57FF4FC4
:1007A0003183208335978081C770887FC82BC083B1
:1007B00081E001C080E0CF911F910F91FF90EF90F9
:1007C000DF90CF9008959C01FC01E058FF4F80819D
:1007D0008C7F808331969081977E9061908344EFE7
:1007E00051E060E070E0C90192CF8F929F92AF928A
:1007F000BF92CF92DF92EF92FF920F931F93CF930E
:100800006B017C01AEEFB1E09B01AC01C0D39B0159
:10081000AC0160E074E284EF90E080D38901CC0CFD
:10082000DD1CEE1CFF1CC0E0812C24E2922E24EF84
:10083000A22EB12CCF5FEC2FF0E0EE0FFF1FE85A95
:10084000FD4F8081918180179107A0F38C01DC011D
:10085000A70196019CD39B01AC01C501B4015ED3F5
:100860002F3F310509F030F72093B3008091B1009C
:10087000C770887FC82BC093B10081E0CF911F91D2
:100880000F91FF90EF90DF90CF90BF90AF909F902F
:100890008F900895E82F880FFF0BEE5DFE4FE491D7
:1008A0008DEF8E0F823018F480E090E022C0E830A7
:1008B00069F4DB01CA014F97A109B1098236944856
:1008C000AE41B105B8F4CB01BA018FCF87EF8E0FDF
:1008D000833018F480E190E00CC084EF8E0F8330F9
:1008E00018F480E290E005C0E051E33018F480EAAB
:1008F00090E00DCF80E0089554D31F920F920FB671
:100900000F9211240BB60F922F933F934F935F9347
:100910006F937F938F939F93AF93BF93EF93FF93C7
:1009200089E792E032DDFF91EF91BF91AF919F9106
:100930008F917F916F915F914F913F912F910F9088
:100940000BBE0F900FBE0F901F9018951F920F9225
:100950000FB60F9211240BB60F922F938F939F9384
:10096000EF93FF93E0918902F0918A028081E091F8
:100970008F02F091900282FD12C0908180919202CC
:100980008F5F8F7320919302821751F0E091920252
:10099000F0E0E758FD4F958F8093920201C080816F
:1009A000FF91EF919F918F912F910F900BBE0F9020
:1009B0000FBE0F901F9018951F920F920FB60F92B7
:1009C00011242F933F938F939F93AF93BF93809165
:1009D000160390911703A0911803B0911903309159
:1009E000740223E0230F2D3720F40196A11DB11DC1
:1009F00005C026E8230F0296A11DB11D20937402A5
:100A00008093160390931703A0931803B0931903D0
:100A10008091750290917602A0917702B091780250
:100A20000196A11DB11D8093750290937602A0934B
:100A30007702B0937802BF91AF919F918F913F91D0
:100A40002F910F900FBE0F901F9018951F920F922D
:100A50000FB60F9211240BB60F922F933F934F9323
:100A60005F936F937F938F939F93AF93BF93EF9316
:100A7000FF93A0DD61E0892B09F060E08DE0BDDD32
:100A8000FF91EF91BF91AF919F918F917F916F9166
:100A90005F914F913F912F910F900BBE0F900FBE22
:100AA0000F901F901895789484B5826084BD84B5AA
:100AB000816084BD85B5826085BD85B5816085BD59
:100AC00080916E00816080936E0010928100809111
:100AD0008100826080938100809181008160809399
:100AE0008100809180008160809380008091B100BE
:100AF00084608093B1008091B00081608093B000E9
:100B0000809191008260809391008091910081603A
:100B100080939100809190008160809390008091FB
:100B2000A10082608093A1008091A10081608093E8
:100B3000A1008091A00081608093A000809121019C
:100B40008260809321018091210181608093210145
:100B50008091200181608093200180917A008460DF
:100B600080937A0080917A00826080937A008091ED
:100B70007A00816080937A0080917A008068809307
:100B80007A001092C1008DE07FDB14DD61E0892BDB
:100B900009F060E08DE031DD84DD0CDD61E0892B62
:100BA00009F060E08DE029DD7CDD04DD61E0892B6A
:100BB00009F060E08DE021DD74DDFCDC61E0892B73
:100BC00009F060E08DE019DD6CDDF4DC61E0892B7B
:100BD00009F060E08DE011DD64DDECDC61E0892B83
:100BE00009F060E08DE009DD5CDDE4DC61E0892B8B
:100BF00009F060E08DE001DD54DDDCDC61E0892B93
:100C000009F060E08DE0F9DCE0918902F0918A0260
:100C100082E08083E0918502F09186021082E0916B
:100C20008702F09188028FEC808310929102E0910C
:100C30008D02F0918E0286E08083E0918B02F0912C
:100C40008C02808180618083E0918B02F0918C0224
:100C5000808188608083E0918B02F0918C0280819A
:100C600080688083E0918B02F0918C0280818F7D7F
:100C7000808380E090E0A7DD8091B0008C7F816070
:100C80008093B0008091B10088608093B10064EFE0
:100C900071E080E090E0A9DD80E190E094DD80E209
:100CA00090E091DD80EA90E08EDD809191008D6092
:100CB00080939100109295001092940088EE9DEF21
:100CC0009093990080939800809171008260809346
:100CD000710078948DE0D8DA40E95FE561E070E07A
:100CE0008BE0D8DD8DE2282E81E0382E01E010E087
:100CF000412C512C32014A9480912203909123037C
:100D000001969093230380932203C12CD12C76016A
:100D10002FB7F8948091160390911703A0911803B0
:100D2000B09119032FBF80931E0390931F03A093CC
:100D30002003B0932103B701A6018BE0ABDD8BE06C
:100D4000A3DAF1018491F4E08F9FC0011124FC012A
:100D5000E05FFD4F308121812170FC01EF5EFD4F8E
:100D6000408146955181652F679566276795C62F07
:100D7000C42B56955170D52FFC01EE5EFD4F40817E
:100D8000469546955181652F6295660F660F607C8A
:100D9000462B52FB552750F9FC01ED5EFD4F80813B
:100DA000982F9695969596959F7087FB882780F942
:100DB000209771F1FA0140818823B1F0480102C007
:100DC000880C991C9A95E2F7C401842B8083E32F49
:100DD000F22F20813181A9E1B0E0CAD0A3019201B4
:100DE0009DD03983288314C0580102C0AA0CBB1CB3
:100DF0009A95E2F7C501842B8083E32FF22F20819F
:100E000030E0A9E1B0E0B4D0A301920187D02883FB
:100E100080911E0390911F03A0912003B0912103A4
:100E200040911A0350911B0360911C0370911D03A4
:100E30004C015D01841A950AA60AB70A28EB8216AE
:100E40002BE09206A104B104A0F42FB7F89480918E
:100E5000160390911703A0911803B09119032FBFA7
:100E600080931E0390931F03A0932003B09321034C
:100E7000CFCF80931A0390931B03A0931C03B093CE
:100E80001D0360E1C60E67E2D61EE11CF11C70EA8C
:100E9000C71676E8D70671E0E706F10409F038CF07
:100EA000FCDA2ACFE9E7F2E01382128288EE93E0BF
:100EB000A0E0B0E084839583A683B78384E092E0CA
:100EC0009183808385EC90E09587848784EC90E023
:100ED0009787868780EC90E0918B808B81EC90E007
:100EE000938B828B82EC90E0958B848B86EC90E0E8
:100EF000978B868B118E128E138E148E0895DB01C4
:100F00008F939F9344D0BF91AF91A29F800D911D6D
:100F1000A39F900DB29F900D11240895A1E21A2E67
:100F2000AA1BBB1BFD010DC0AA1FBB1FEE1FFF1F8D
:100F3000A217B307E407F50720F0A21BB30BE40BDD
:100F4000F50B661F771F881F991F1A9469F7609524
:100F50007095809590959B01AC01BD01CF010895DE
:100F6000EE0FFF1F881F8BBF0790F691E02D19949D
:100F7000A29FB001B39FC001A39F700D811D1124DA
:100F8000911DB29F700D811D1124911D0895F0DFF8
:100F9000A59F900DB49F900DA49F800D911D1124CD
:0E0FA000089581E090E0F89400C0F894FFCF2F
:100FAE0000000000E6016301B0018E01A2012C02D7
:100FBE00000000000000000047901029861001BAC2
:100FCE00861401AA0000000000000000B368C12AC8
:100FDE00963041BA963441AA9638419AA65081BAB3
:100FEE00A65481AAA658819A00000000265182BC00
:100FFE00265582AC2659829C000001000800200074
:10100E0040008000000100040000010008004000C4
:04101E0000010004C9
:00000001FF
