:1000000014C1000040C100003EC100003CC100001E
:100010003AC1000038C1000036C1000034C1000000
:1000200032C1000030C100002EC100002CC1000010
:100030002AC1000028C1000026C10000B0C3000092
:1000400022C10000EFC400001EC100001CC100005E
:100050001AC1000018C1000016C10000F7C200005C
:1000600012C1000066C300003BC300000CC10000C9
:100070000AC1000008C1000006C1000004C1000060
:1000800002C10000B3C30000FEC00000FCC00000BD
:10009000FAC00000F8C00000F6C00000F4C0000084
:1000A000F2C00000F0C00000EEC00000ECC0000094
:1000B000EAC00000E8C00000E6C00000E4C00000A4
:1000C000E2C00000E0C00000DEC00000DCC00000B4
:1000D000DAC00000D8C00000D6C00000D4C00000C4
:1000E000D2C00000EA02ED02DC02E002E6022403D4
:1000F000F102F502FB02FF02030309030D031103E2
:10010000240317031B031F03000020002300260005
:1001100029002C002F00320000010000030106011D
:10012000090100000A0B02090C0D0E080703040167
:1001300000000000000000000000000000000000BF
:10014000000000000000000000000000000012118C
:10015000100000000000000000000000000000008F
:100160000000000000000000000022002500280020
:100170002B002E00310034000201000005010801AF
:100180000B0100002100240027002A002D00300070
:10019000330001010000040107010A0105050505FE
:1001A000070508080808020202020A0A08080404EF
:1001B000040401010101010101010303030303031D
:1001C0000303040707070C0C0C0C0C0C0C0C0202AC
:1001D000020206060606060606060B0B0B0B0B0BA9
:1001E0000B0B010210202008081020401020408036
:1001F00002010201080402010102040810204080EB
:100200008040201008040201800402018040201078
:1002100008040201080402010102040810204080C1
:1002200001020408102040808D0511241FBECFEF6D
:10023000D1E2DEBFCDBF00E00CBF12E0A0E0B2E033
:10024000EAEEF0E100E00BBF02C007900D92A4318E
:10025000B107D9F722E0A4E1B2E001C01D92A83CA9
:10026000B207E1F711E0C5E1D1E000E005C0219758
:100270000109802FFE0109D7C431D10780E00807AA
:10028000B1F782D430C7BCCE90E0FC01EE51FE4FF6
:100290002491FC01E456FE4F8491882399F090E06C
:1002A000880F991FFC01EE57FE4FA591B491FC01F8
:1002B000E859FE4F859194918FB7F894EC91E22B19
:1002C000EC938FBF08953FB7F8942091B200B89B8C
:1002D00016C02091B2008091BE029091BF02A09101
:1002E000C002B091C1020196A11DB11D8093BE0252
:1002F0009093BF02A093C002B093C102B89A8091BC
:10030000BE029091BF02A091C002B091C102BA2F6B
:10031000A92F982F8827BC01CD01620F711D811D67
:10032000911D6093C2027093C3028093C4029093A4
:10033000C5023FBF0895CF92DF92EF92FF920F93D5
:100340001F93CF93DF936C017A018B01C0E0D0E063
:10035000CE15DF0589F0D8016D918D01D601ED91A3
:10036000FC910190F081E02DC6011995892B11F4C3
:100370007E0102C02196ECCFC701DF91CF911F9182
:100380000F91FF90EF90DF90CF900895089580E057
:1003900090E00895FC01538D448D252F30E0842F8B
:1003A00090E0821B930B541710F0CF96089501979D
:1003B0000895FC01918D828D981761F0828DDF0187
:1003C000A80FB11D5D968C91928D9F5F9F73928F48
:1003D00090E008958FEF9FEF0895FC01918D828D3D
:1003E000981731F0828DE80FF11D858D90E008950A
:1003F0008FEF9FEF0895FC01918D228D892F90E062
:10040000805C9F4F821B91098F739927089581E229
:1004100092E0F1DF21E0892B09F420E0822F08959A
:10042000FC01848DDF01A80FB11DA35ABF4F2C9191
:10043000848D90E001968F739927848FA689B78960
:100440002C93A089B1898C9180648C93938D848D39
:10045000981306C00288F389E02D80818F7D808308
:100460000895EF92FF920F931F93CF93DF93EC01C8
:1004700081E0888F9B8D8C8D981305C0E889F98960
:10048000808185FD23C0F62E0B8D10E00F5F1F4F7E
:100490000F731127E02E8C8DE8120BC00FB607FCEE
:1004A000FACFE889F989808185FFF5CFCE01B8DFE1
:1004B000F2CF8B8DFE01E80FF11DE35AFF4FF08262
:1004C0000B8FEA89FB898081806207C0EE89FF89F2
:1004D0006083E889F98980818064808381E090E08D
:1004E000DF91CF911F910F91FF90EF900895CF93DF
:1004F000DF93EC01888D8823C1F0EA89FB89808134
:1005000085FD05C0A889B9898C9186FD0EC00FB6FE
:1005100007FCF5CF808185FFF2CFA889B9898C913E
:1005200085FFEDCFCE017CDFE8CFDF91CF9108953D
:1005300080E090E0892B19F06ADF811125C080E00E
:1005400090E0892B41F080E090E0892B21F00E941F
:10055000000081111CC080E090E0892B41F080E018
:1005600090E0892B21F00E940000811113C080E0EF
:1005700090E0892BA1F080E090E0892B81F00E942F
:10058000000081110AC008950E940000D8CF0E9487
:100590000000E1CF0E940000EACF0C940000089513
:1005A00090E0FC013197E231F10508F04DC0882759
:1005B000EE58FF4F8F4F69C5809180008F7703C041
:1005C000809180008F7D80938000089580918000CD
:1005D000877FF9CF84B58F7702C084B58F7D84BDC6
:1005E00008958091B0008F7703C08091B0008F7D17
:1005F0008093B0000895809190008F7707C080911C
:1006000090008F7D03C080919000877F8093900041
:1006100008958091A0008F7707C08091A0008F7D02
:1006200003C08091A000877F8093A00008958091EF
:1006300020018F7707C0809120018F7D03C08091BA
:100640002001877F80932001089549D51F920F9242
:100650000FB60F9211242F933F938F939F93AF93D5
:10066000BF9380911D0290911E02A0911F02B09134
:10067000200230911C0223E0230F2D3720F4019635
:10068000A11DB11D05C026E8230F0296A11DB11DB5
:1006900020931C0280931D0290931E02A0931F02C0
:1006A000B09320028091180290911902A0911A0231
:1006B000B0911B020196A11DB11D80931802909369
:1006C0001902A0931A02B0931B02BF91AF919F91A0
:1006D0008F913F912F910F900FBE0F901F90189503
:1006E0001F920F920FB60F9211240BB60F922F93F9
:1006F0003F934F935F936F937F938F939F93AF93AA
:10070000BF93EF93FF9381E292E08ADEFF91EF9136
:10071000BF91AF919F918F917F916F915F914F9119
:100720003F912F910F900BBE0F900FBE0F901F9017
:1007300018951F920F920FB60F9211240BB60F92BD
:100740002F938F939F93EF93FF93E0913102F0915A
:1007500032028081E0913702F091380282FD12C0AE
:10076000908180913A028F5F8F7320913B028217B4
:1007700051F0E0913A02F0E0EF5DFD4F958F8093EC
:100780003A0201C08081FF91EF919F918F912F914B
:100790000F900BBE0F900FBE0F901F9018951F92D9
:1007A0000F920FB60F9211240BB60F928F939F9357
:1007B000AF93BF93EF93FF93EEEBF2E080819181D3
:1007C000A281B3810196A11DB11D80839183A28373
:1007D000B383FF91EF91BF91AF919F918F910F9054
:1007E0000BBE0F900FBE0F901F9018951F920F9287
:1007F0000FB60F9211240BB60F924F925F926F9229
:100800007F928F929F92AF92BF92CF92DF92EF92A0
:10081000FF920F931F932F933F934F935F936F9389
:100820007F938F939F93AF93BF93EF93FF93CF9358
:10083000DF93CDB7DEB7C855D109DEBFCDBF8091FC
:1008400000029091010288579C4E90930102809380
:1008500000028091000290910102209100023091EB
:100860000102032E000C440B550B60E472E48FE090
:1008700090E0EFD3CA01B901D9D24B015C016E01FE
:1008800081E3C80ED11C7E01E5E0EE0EF11C01E013
:1008900010E0B801012E000C880B990BC7D22DEC8B
:1008A0003CEC4CEC5DE372D3A50194016FD39B014A
:1008B000AC01F60161937193819391936F01C5012E
:1008C000B40149D2F70161937193819391937F01B0
:1008D0000F5F1F4F0B301105E1F68E010F5F1F4FA9
:1008E0007E01FDE2EF0EF11C6E0189E2C80ED11C03
:1008F000EADC2B013C012C9A109214021092150292
:1009000010921602109217024B015C0160911402C2
:1009100070911502809116029091170285D2F7010D
:1009200024813581468157817BD287FF17C0CBDC7C
:100930004B015C01CB018419950997FD01969595B2
:100940008795092E000CAA0BBB0B80931402909381
:100950001502A0931602B0931702D8CF2C981092CC
:100960001402109215021092160210921702609152
:10097000140270911502809116029091170254D2C0
:10098000F80124813581468157814AD287FF17C0FB
:100990009ADC6819790977FF02C06F5F7F4FCB013E
:1009A00095958795092E000CAA0BBB0B809314021A
:1009B00090931502A0931602B0931702D8CF0C5F44
:1009C0001F4FF4E0EF0EF11C0C151D0509F090CF40
:1009D000C85ADF4F0FB6F894DEBF0FBECDBFDF9110
:1009E000CF91FF91EF91BF91AF919F918F917F91A7
:1009F0006F915F914F913F912F911F910F91FF90B8
:100A0000EF90DF90CF90BF90AF909F908F907F90AE
:100A10006F905F904F900F900BBE0F900FBE0F9096
:100A20001F9018951F920F920FB60F9211240BB6BC
:100A30000F92CF92DF92EF92FF920F931F932F931B
:100A40003F934F935F936F937F938F939F93AF9356
:100A5000BF93CF93DF93EF93FF932FE2C22E21E05A
:100A6000D22EF60184913FEEE32E31E0F32EF70112
:100A70000491C9EAD1E0FE0114911123A1F0811182
:100A80008FDD212F30E0220F331F285F3E4FF90109
:100A9000A591B4918C91082391E080E009F490E055
:100AA000092F182F02C000E010E0F6018491F70131
:100AB000E490FE01C491CC23A9F0811171DDEC2FEB
:100AC000F0E0EE0FFF1FE859FE4FA591B4918FB7EC
:100AD000F8949C91012B19F0E094E92201C0E92AD5
:100AE000EC928FBFFF91EF91DF91CF91BF91AF91CA
:100AF0009F918F917F916F915F914F913F912F9136
:100B00001F910F91FF90EF90DF90CF900F900BBE51
:100B10000F900FBE0F901F901895E1E2F2E0138244
:100B2000128288EE93E0A0E0B0E084839583A683F0
:100B3000B78386E092E09183808385EC90E095878F
:100B4000848784EC90E09787868780EC90E0918B97
:100B5000808B81EC90E0938B828B82EC90E0958B84
:100B6000848B86EC90E0978B868B118E128E138E81
:100B7000148EEEEBF2E01082118212821382148244
:100B80001582168217820895789484B5826084BD98
:100B900084B5816084BD85B5826085BD85B5816081
:100BA00085BD80916E00816080936E0010928100FF
:100BB00080918100826080938100809181008160BA
:100BC000809381008091800081608093800080917B
:100BD000B10084608093B1008091B0008160809307
:100BE000B00080919100826080939100809191008B
:100BF000816080939100809190008160809390004B
:100C00008091A10082608093A1008091A100816009
:100C10008093A1008091A00081608093A0008091CA
:100C20002101826080932101809121018160809364
:100C300021018091200181608093200180917A00C0
:100C4000846080937A0080917A00826080937A0039
:100C500080917A00816080937A0080917A00806828
:100C600080937A001092C10010929100109290002F
:100C70008FEF88BB88EE9DEF90939900809398004A
:100C800090939B0080939A00F89410929500109294
:100C900094008091710086608093710078948091B7
:100CA0009000806980939000809191008D60809386
:100CB00091008DE0E9DA109281001092800080911D
:100CC00081008C60809381008AE090E0909389009D
:100CD0008093880080916F00826080936F0085E030
:100CE000D3DA82E0D1DA8AE0CFDAE0913102F09112
:100CF000320282E08083E0912D02F0912E02108278
:100D0000E0912F02F091300280E18083109239024D
:100D1000E0913502F091360286E08083E091330263
:100D2000F0913402808180618083E0913302F09100
:100D30003402808188608083E0913302F091340234
:100D4000808180688083E0913302F0913402808159
:100D50008F7D8083FFCF5058BB27AA270ED0DCC0E1
:100D6000CDD030F0D2D020F031F49F3F11F41EF4FA
:100D7000C2C00EF4E095E7FBB8C0E92FDED080F3E7
:100D8000BA17620773078407950718F071F49EF588
:100D9000F6C00EF4E0950B2EBA2FA02D0B01B90171
:100DA00090010C01CA01A0011124FF27591B99F0E1
:100DB000593F50F4503E68F11A16F040A22F232FED
:100DC000342F4427585FF3CF469537952795A7953D
:100DD000F0405395C9F77EF41F16BA0B620B730BE4
:100DE000840BBAF09150A1F0FF0FBB1F661F771F55
:100DF000881FC2F70EC0BA0F621F731F841F48F40A
:100E0000879577956795B795F7959E3F08F0B3CF8F
:100E10009395880F08F09927EE0F97958795089579
:100E200040D008F481E00895E89409C097FB3EF4AF
:100E300090958095709561957F4F8F4F9F4F992327
:100E4000A9F0F92F96E9BB279395F69587957795A5
:100E50006795B795F111F8CFFAF4BB0F11F460FF65
:100E60001BC06F5F7F4F8F4F9F4F16C0882311F0BD
:100E700096E911C0772321F09EE8872F762F05C0D1
:100E8000662371F096E8862F70E060E02AF09A956C
:100E9000660F771F881FDAF7880F9695879597F961
:100EA0000895990F0008550FAA0BE0E8FEEF1616FB
:100EB0001706E807F907C0F012161306E407F5074E
:100EC00098F0621B730B840B950B39F40A2661F0C2
:100ED000232B242B252B21F408950A2609F4A14065
:100EE000A6958FEF811D811D089597F99F6780E872
:100EF00070E060E008959FEF80EC089500240A946C
:100F00001616170618060906089500240A941216E4
:100F10001306140605060895092E0394000C11F417
:100F2000882352F0BB0F40F4BF2B11F460FF04C0C4
:100F30006F5F7F4F8F4F9F4F089557FD9058440F1D
:100F4000551F59F05F3F71F04795880F97FB991F28
:100F500061F09F3F79F087950895121613061406E5
:100F6000551FF2CF4695F1DF08C016161706180672
:100F7000991FF1CF86957105610508940895E8944D
:100F8000BB2766277727CB0197F908950BD0C4CFED
:100F9000B5DF28F0BADF18F0952309F0A6CFABCF64
:100FA0001124EECFCADFA0F3959FD1F3950F50E047
:100FB000551F629FF001729FBB27F00DB11D639F0B
:100FC000AA27F00DB11DAA1F649F6627B00DA11DB1
:100FD000661F829F2227B00DA11D621F739FB00D57
:100FE000A11D621F839FA00D611D221F749F3327C7
:100FF000A00D611D231F849F600D211D822F762F60
:101000006A2F11249F5750408AF0E1F088234AF05C
:10101000EE0FFF1FBB1F661F771F881F91505040A8
:10102000A9F79E3F510570F060CFAACF5F3FECF368
:10103000983EDCF3869577956795B795F795E79594
:101040009F5FC1F7FE2B880F911D9695879597F9A5
:101050000895052E97FB16F400940FD057FD05D088
:101060001CD007FC02D046F408C05095409530953E
:1010700021953F4F4F4F5F4F089590958095709504
:1010800061957F4F8F4F9F4F0895EE0FFF1F881F71
:101090008BBF0790F691E02D1994A1E21A2EAA1B9E
:1010A000BB1BFD010DC0AA1FBB1FEE1FFF1FA21718
:1010B000B307E407F50720F0A21BB30BE40BF50B15
:1010C000661F771F881F991F1A9469F7609570959E
:1010D000809590959B01AC01BD01CF01089581E001
:0A10E00090E0F89400C0F894FFCFF0
:1010EA0010270000000031029B01CA017702FB01B0
:0410FA00D901ED012A
:00000001FF
