:10000000D2C00000FEC00000FCC00000FAC000002A
:10001000F8C00000F6C00000F4C00000F2C000000C
:10002000F0C00000EEC00000ECC00000EAC000001C
:10003000E8C00000E6C00000E4C00000E2C000002C
:10004000E0C00000ABC20000DCC00000DAC000006D
:10005000D8C00000D6C00000D4C0000055C20000C7
:10006000D0C000001BC20000F0C10000CAC00000E8
:10007000C8C00000C6C00000C4C00000C2C000006C
:10008000C0C00000BEC00000BCC0000002C3000031
:10009000B8C00000B6C00000B4C00000B2C000008C
:1000A000B0C00000AEC00000ACC00000AAC000009C
:1000B000A8C00000A6C00000A4C00000A2C00000AC
:1000C000A0C000009EC000009CC000009AC00000BC
:1000D00098C0000096C0000094C0000092C00000CC
:1000E00090C0000000002200250028002B002E00F8
:1000F0003100340002010000050108010B0100007D
:100100002100240027002A002D00300033000101C7
:100110000000040107010A01050505050705080897
:100120000808020202020A0A080804040404010181
:100130000101010101010303030303030303040796
:1001400007070C0C0C0C0C0C0C0C0202020206062D
:100150000606060606060B0B0B0B0B0B0B0B010220
:1001600010202008081020401020408002010201C9
:100170000804020101020408102040808040201081
:1001800008040201800402018040201008040201DA
:100190000804020101020408102040800102040842
:1001A000102040805B0511241FBECFEFD1E2DEBFDF
:1001B000CDBF00E00CBF12E0A0E0B2E0ECEEFDE04D
:1001C00000E00BBF02C007900D92AA31B107D9F72A
:1001D0002BE1AAE1B2E001C01D92A431B207E1F720
:1001E00010E0C3EDD0E000E005C021970109802FA9
:1001F000FE01CCD4C23DD10780E00807B1F760D240
:10020000F3C5FECECF92DF92EF92FF920F931F9332
:10021000CF93DF936C017A018B01C0E0D0E0CE1563
:10022000DF0589F0D8016D918D01D601ED91FC912A
:100230000190F081E02DC6011995892B11F47E0102
:1002400002C02196ECCFC701DF91CF911F910F9192
:10025000FF90EF90DF90CF900895FC01918D828DFB
:10026000981761F0828DDF01A80FB11D5D968C910A
:10027000928D9F5F9F73928F90E008958FEF9FEF15
:100280000895FC01918D828D981731F0828DE80FD1
:10029000F11D858D90E008958FEF9FEF0895FC018B
:1002A000918D228D892F90E0805C9F4F821B910958
:1002B0008F739927089586E999E1F1DF21E0892B71
:1002C00009F420E0822F0895FC01848DDF01A80F3E
:1002D000B11DA35ABF4F2C91848D90E001968F736E
:1002E0009927848FA689B7892C93A089B1898C918D
:1002F00080648C93938D848D981306C00288F38953
:10030000E02D80818F7D80830895EF92FF920F937F
:100310001F93CF93DF93EC0181E0888F9B8D8C8DB1
:10032000981305C0E889F989808185FD23C0F62EE0
:100330000B8D10E00F5F1F4F0F731127E02E8C8D78
:10034000E8120BC00FB607FCFACFE889F989808163
:1003500085FFF5CFCE01B8DFF2CF8B8DFE01E80F20
:10036000F11DE35AFF4FF0820B8FEA89FB898081F0
:10037000806207C0EE89FF896083E889F9898081FE
:100380008064808381E090E0DF91CF911F910F9195
:10039000FF90EF900895CF93DF93EC01888D882331
:1003A000C1F0EA89FB89808185FD05C0A889B989EA
:1003B0008C9186FD0EC00FB607FCF5CF808185FFBE
:1003C000F2CFA889B9898C9185FFEDCFCE017CDF72
:1003D000E8CFDF91CF91089580E090E0892B19F06C
:1003E0006ADF811125C080E090E0892B41F080E038
:1003F00090E0892B21F00E94000081111CC080E058
:1004000090E0892B41F080E090E0892B21F00E9460
:100410000000811113C080E090E0892BA1F080E002
:1004200090E0892B81F00E94000081110AC008959C
:100430000E940000D8CF0E940000E1CF0E9400007F
:10044000EACF0C9400000895CBD41F920F920FB600
:100450000F9211240BB60F922F933F934F935F93FC
:100460006F937F938F939F93AF93BF93EF93FF937C
:1004700086E999E129DFFF91EF91BF91AF919F91BB
:100480008F917F916F915F914F913F912F910F903D
:100490000BBE0F900FBE0F901F9018951F920F92DA
:1004A0000FB60F9211240BB60F922F938F939F9339
:1004B000EF93FF93E091A619F091A7198081E09145
:1004C000AC19F091AD1982FD12C090818091AF19E5
:1004D0008F5F8F732091B019821751F0E091AF199F
:1004E000F0E0EA56F64E958F8093AF1901C08081F7
:1004F000FF91EF919F918F912F910F900BBE0F90D5
:100500000FBE0F901F9018951F920F920FB60F926B
:1005100011242F933F938F939F93AF93BF93809119
:10052000921990919319A0919419B09195193091C5
:10053000911923E0230F2D3720F40196A11DB11D41
:1005400005C026E8230F0296A11DB11D2093911925
:100550008093921990939319A0939419B09395193D
:1005600080918D1990918E19A0918F19B091901949
:100570000196A11DB11D80938D1990938E19A093A2
:100580008F19B0939019BF91AF919F918F913F9127
:100590002F910F900FBE0F901F9018951F920F92E2
:1005A0000FB60F9211240BB60F922F933F938F9398
:1005B0009F93AF93BF93EF93FF9380918B1990918B
:1005C0008C19019690938C1980938B19E0918B195B
:1005D000F0918C193FB7F89480918D1990918E19F4
:1005E000A0918F19B091901926B5A89B05C02F3FF7
:1005F00019F00196A11DB11D3FBFBA2FA92F982F49
:100600008827820F911DA11DB11D22E0880F991F1F
:10061000AA1FBB1F2A95D1F7EE0FFF1FEE0FFF1F7A
:10062000E551F64F80839183A283B383E0918B19C8
:10063000F0918C1980917B00877F80937B0080E410
:1006400080937C0080917A00806480937A0080910E
:100650007A0086FDFCCF809178002091790090E0AF
:10066000922BEE0FFF1FE55EFD4F9183808381E0AB
:1006700080931A02FF91EF91BF91AF919F918F915B
:100680003F912F910F900BBE0F900FBE0F901F90B8
:1006900018951F920F920FB60F9211248F939F936C
:1006A00081E08093131B80E593EC909395008093F9
:1006B00094009F918F910F900FBE0F901F901895EF
:1006C000CF93DF93CDB7DEB72A970FB6F894DEBF8E
:1006D0000FBECDBF789484B5826084BD84B581603F
:1006E00084BD85B5826085BD85B5816085BD8091FD
:1006F0006E00816080936E00109281008091810075
:10070000826080938100809181008160809381006C
:10071000809180008160809380008091B10084602E
:100720008093B1008091B00081608093B00080918F
:10073000910082608093910080919100816080930C
:100740009100809190008160809390008091A10041
:1007500082608093A1008091A10081608093A100BC
:100760008091A00081608093A0008091210182602F
:1007700080932101809121018160809321018091EA
:10078000200181608093200180917A0084608093B1
:100790007A0080917A00826080937A0080917A005A
:1007A000816080937A0080917A00806880937A00DB
:1007B0001092C100E091A619F091A71982E0808300
:1007C000E091A219F091A3191082E091A419F0917F
:1007D000A51910821092AE19E091AA19F091AB19E7
:1007E00086E08083E091A819F091A9198081806149
:1007F0008083E091A819F091A91980818860808395
:10080000E091A819F091A919808180688083E09116
:10081000A819F091A91980818F7D808344E050E070
:1008200064E172E086E999E1EDDC109291001092AA
:1008300090009FEF98BB28EE3DEF309399002093F6
:10084000980030939B0020939A00F89410929500A2
:10085000109294008091710081608093710078946F
:1008600080919000809390008091910085608093AA
:100870009100109281001092800096BB80E89CE06D
:100880009093890080938800F894109285001092CC
:100890008400789480918000809380008091810012
:1008A000896080938100E7E6F1E02491E1E2F1E0E4
:1008B0008491882399F090E0880F991FFC01E25001
:1008C000FF4FA591B491FC01EC51FF4F859194919C
:1008D0008FB7F894EC91E22BEC938FBFC09000029D
:1008E000D0900102E0900202F0900302460157010D
:1008F00023E33AE13A83298307E41AE160E874E8E4
:100900008EE190E0A501940103D1A981BA812D93D4
:100910003D93BA83A983212C312C1A861986C901EB
:10092000330FAA0BBB0B8D839E83AF83B887A9853A
:10093000BA851196BA87A987F801E20DF31DFC83E9
:10094000EB83BD01BB0F880B990B5BD12DEC3CEC0D
:100950004CEC5DE3BAD12B013C016D817E818F812E
:1009600098854FD19B01AC01C301B201AED116D124
:10097000AB81BC816D937C93B2E02B0E311CE98579
:10098000FA853A97A1F6F8E88F0EF3E19F1EA11CB5
:10099000B11C0C5E1F4F2BE10F30120709F0AECFD8
:1009A00030E5C30E33ECD31EE11CF11CC0920002F3
:1009B000D0920102E0920202F09203021AE08091CA
:1009C000131B882309F475C01092121B1092111B7F
:1009D00010927000E0910F1BF091101BEE0FFF1FA3
:1009E000ED5CF54E80818093B3008091111B909156
:1009F000121B20910F1B3091101B129FF001139FAF
:100A0000F00D1124E80FF91FEE0FFF1FE95BF54E03
:100A100080818093B400F8941092B2007894809111
:100A2000B00083628093B0008091B1008A608093AF
:100A3000B1008091111B9091121B0A971CF5B89B75
:100A4000F8CF8091111B9091121B01969093121B6D
:100A50008093111B8091111B9091121B20910F1BF1
:100A60003091101B129FF001139FF00D1124E80F1D
:100A7000F91FEE0FFF1FE95BF54E80818093B400F4
:100A8000B89AD7CF1092B0001092B10080910F1B8E
:100A90009091101B01968A3091052CF49093101BB5
:100AA00080930F1B04C01092101B10920F1B10920A
:100AB000131B92DC84CFE6E9F9E11382128288EEFF
:100AC00093E0A0E0B0E084839583A683B78388E0B9
:100AD00092E09183808385EC90E09587848784EC15
:100AE00090E09787868780EC90E0918B808B81ECFB
:100AF00090E0938B828B82EC90E0958B848B86ECDC
:100B000090E0978B868B118E128E138E148E089523
:100B1000052E97FB16F400940FD057FD05D014D086
:100B200007FC02D046F408C05095409530952195B9
:100B30003F4F4F4F5F4F0895909580957095619509
:100B40007F4F8F4F9F4F0895A1E21A2EAA1BBB1B08
:100B5000FD010DC0AA1FBB1FEE1FFF1FA217B30789
:100B6000E407F50720F0A21BB30BE40BF50B661F9F
:100B7000771F881F991F1A9469F760957095809563
:100B800090959B01AC01BD01CF010895EE0FFF1FB1
:100B9000881F8BBF0790F691E02D199404D06894BC
:100BA000B1118DC0089570D088F09F5790F0B92F83
:100BB0009927B751A0F0D1F0660F771F881F991FB2
:100BC0001AF0BA95C9F712C0B13081F077D0B1E010
:100BD000089574C0672F782F8827B85F39F0B93F20
:100BE000CCF3869577956795B395D9F73EF49095B4
:100BF0008095709561957F4F8F4F9F4F0895E89432
:100C000009C097FB3EF490958095709561957F4F54
:100C10008F4F9F4F9923A9F0F92F96E9BB27939502
:100C2000F695879577956795B795F111F8CFFAF412
:100C3000BB0F11F460FF1BC06F5F7F4F8F4F9F4F43
:100C400016C0882311F096E911C0772321F09EE8A1
:100C5000872F762F05C0662371F096E8862F70E007
:100C600060E02AF09A95660F771F881FDAF7880FE1
:100C70009695879597F9089557FD9058440F551FFD
:100C800059F05F3F71F04795880F97FB991F61F00E
:100C90009F3F79F087950895121613061406551F85
:100CA000F2CF4695F1DF08C0161617061806991FF1
:100CB000F1CF86957105610508940895E894BB27E6
:100CC00066277727CB0197F908950BD078C069D0B4
:100CD00028F06ED018F0952309F05AC05FC0112497
:100CE000EECFCADFA0F3959FD1F3950F50E0551FCB
:100CF000629FF001729FBB27F00DB11D639FAA2771
:100D0000F00DB11DAA1F649F6627B00DA11D661FBF
:100D1000829F2227B00DA11D621F739FB00DA11DE0
:100D2000621F839FA00D611D221F749F3327A00D9A
:100D3000611D231F849F600D211D822F762F6A2F36
:100D400011249F5750408AF0E1F088234AF0EE0FBB
:100D5000FF1FBB1F661F771F881F91505040A9F7C8
:100D60009E3F510570F014C0AACF5F3FECF3983E50
:100D7000DCF3869577956795B795F795E7959F5F2F
:100D8000C1F7FE2B880F911D9695879597F90895C9
:100D900097F99F6780E870E060E008959FEF80EC2E
:100DA000089500240A9416161706180609060895D1
:100DB00000240A9412161306140605060895092E37
:100DC0000394000C11F4882352F0BB0F40F4BF2BA6
:100DD00011F460FF04C06F5F7F4F8F4F9F4F0895E6
:0C0DE00081E090E0F89400C0F894FFCF90
:100DEC001027000000000000850102014F012D01B9
:0A0DFC004101CB016865796F00002A
:00000001FF
