:10000000D2C00000FEC00000FCC00000FAC000002A
:10001000F8C00000F6C00000F4C00000F2C000000C
:10002000F0C00000EEC00000ECC00000EAC000001C
:10003000E8C00000E6C00000E4C00000E2C000002C
:10004000E0C00000DEC00000DCC00000DAC000003C
:10005000D8C00000D6C00000D4C0000046C20000D6
:10006000D0C00000B5C200008AC20000CAC00000B3
:10007000C8C00000C6C00000C4C00000C2C000006C
:10008000C0C00000BEC00000BCC00000D7C200005D
:10009000B8C00000B6C00000B4C00000B2C000008C
:1000A000B0C00000AEC00000ACC00000AAC000009C
:1000B000A8C00000A6C00000A4C00000A2C00000AC
:1000C000A0C000009EC000009CC000009AC00000BC
:1000D00098C0000096C0000094C0000092C00000CC
:1000E00090C0000000002200250028002B002E00F8
:1000F0003100340002010000050108010B0100007D
:100100002100240027002A002D00300033000101C7
:100110000000040107010A01050505050705080897
:100120000808020202020A0A080804040404010181
:100130000101010101010303030303030303040796
:1001400007070C0C0C0C0C0C0C0C0202020206062D
:100150000606060606060B0B0B0B0B0B0B0B010220
:1001600010202008081020401020408002010201C9
:100170000804020101020408102040808040201081
:1001800008040201800402018040201008040201DA
:100190000804020101020408102040800102040842
:1001A00010204080BE0411241FBECFEFD1E2DEBF7D
:1001B000CDBF00E00CBF12E0A0E0B2E0E6E3FAE061
:1001C00000E00BBF02C007900D92AA31B107D9F72A
:1001D0002AE1AAE1B2E001C01D92AC33B207E1F717
:1001E00010E0C3EDD0E000E005C021970109802FA9
:1001F000FE0113D4C23DD10780E00807B1F749D210
:1002000018C4FECECF92DF92EF92FF920F931F930E
:10021000CF93DF936C017A018B01C0E0D0E0CE1563
:10022000DF0589F0D8016D918D01D601ED91FC912A
:100230000190F081E02DC6011995892B11F47E0102
:1002400002C02196ECCFC701DF91CF911F910F9192
:10025000FF90EF90DF90CF900895FC01918D828DFB
:10026000981761F0828DDF01A80FB11D5D968C910A
:10027000928D9F5F9F73928F90E008958FEF9FEF15
:100280000895FC01918D828D981731F0828DE80FD1
:10029000F11D858D90E008958FEF9FEF0895FC018B
:1002A000918D228D892F90E0805C9F4F821B910958
:1002B0008F73992708958FE999E1F1DF21E0892B68
:1002C00009F420E0822F0895FC01848DDF01A80F3E
:1002D000B11DA35ABF4F2C91848D90E001968F736E
:1002E0009927848FA689B7892C93A089B1898C918D
:1002F00080648C93938D848D981306C00288F38953
:10030000E02D80818F7D80830895EF92FF920F937F
:100310001F93CF93DF93EC0181E0888F9B8D8C8DB1
:10032000981305C0E889F989808185FD23C0F62EE0
:100330000B8D10E00F5F1F4F0F731127E02E8C8D78
:10034000E8120BC00FB607FCFACFE889F989808163
:1003500085FFF5CFCE01B8DFF2CF8B8DFE01E80F20
:10036000F11DE35AFF4FF0820B8FEA89FB898081F0
:10037000806207C0EE89FF896083E889F9898081FE
:100380008064808381E090E0DF91CF911F910F9195
:10039000FF90EF900895CF93DF93EC01888D882331
:1003A000C1F0EA89FB89808185FD05C0A889B989EA
:1003B0008C9186FD0EC00FB607FCF5CF808185FFBE
:1003C000F2CFA889B9898C9185FFEDCFCE017CDF72
:1003D000E8CFDF91CF91089580E090E0892B19F06C
:1003E0006ADF811125C080E090E0892B41F080E038
:1003F00090E0892B21F00E94000081111CC080E058
:1004000090E0892B41F080E090E0892B21F00E9460
:100410000000811113C080E090E0892BA1F080E002
:1004200090E0892B81F00E94000081110AC008959C
:100430000E940000D8CF0E940000E1CF0E9400007F
:10044000EACF0C940000089580918F199091901933
:10045000883B9B4024F01092901910928F19809144
:100460008F1990919019892B49F080918F19909153
:10047000901901969093901980938F19E0918F199C
:10048000F091901980917B00877F80937B0080E4BE
:1004900080937C0080917A00806480937A008091C0
:1004A0007A0086FDFCCF809178002091790090E061
:1004B000922BEE0FFF1FE15EFD4F9183808381E061
:1004C000809391190895009761F0FC01019000203C
:1004D000E9F73197AF01481B590BBC018FE999E14E
:1004E00091CE80E090E00895A0D21F920F920FB6B7
:1004F0000F9211242F933F938F939F93AF93BF93AA
:1005000080919B1990919C19A0919D19B0919E1971
:1005100030919A1923E0230F2D3720F40196A11D65
:10052000B11D05C026E8230F0296A11DB11D209321
:100530009A1980939B1990939C19A0939D19B0933D
:100540009E198091961990919719A0919819B09140
:1005500099190196A11DB11D809396199093971931
:10056000A0939819B0939919BF91AF919F918F91D2
:100570003F912F910F900FBE0F901F9018951F92D3
:100580000F920FB60F9211240BB60F922F933F9339
:100590004F935F936F937F938F939F93AF93BF938B
:1005A000EF93FF938FE999E18FDEFF91EF91BF9178
:1005B000AF919F918F917F916F915F914F913F91FB
:1005C0002F910F900BBE0F900FBE0F901F9018959C
:1005D0001F920F920FB60F9211240BB60F922F930A
:1005E0008F939F93EF93FF93E091AF19F091B01920
:1005F0008081E091B519F091B61982FD12C0908109
:100600008091B8198F5F8F732091B919821751F0BB
:10061000E091B819F0E0E156F64E958F8093B81945
:1006200001C08081FF91EF919F918F912F910F9049
:100630000BBE0F900FBE0F901F9018951F920F9238
:100640000FB60F9211240BB60F922F933F934F9337
:100650005F936F937F938F939F93AF93BF93EF932A
:10066000FF93E0911A02F0911B021995FF91EF910F
:10067000BF91AF919F918F917F916F915F914F91BA
:100680003F912F910F900BBE0F900FBE0F901F90B8
:100690001895CF93DF93CDB7DEB7A1970FB6F89437
:1006A000DEBF0FBECDBF789484B5826084BD84B5B3
:1006B000816084BD85B5826085BD85B5816085BD5D
:1006C00080916E00816080936E0010928100809115
:1006D000810082608093810080918100816080939D
:1006E0008100809180008160809380008091B100C2
:1006F00084608093B1008091B00081608093B000ED
:10070000809191008260809391008091910081603E
:1007100080939100809190008160809390008091FF
:10072000A10082608093A1008091A10081608093EC
:10073000A1008091A00081608093A00080912101A0
:100740008260809321018091210181608093210149
:100750008091200181608093200180917A008460E3
:1007600080937A0080917A00826080937A008091F1
:100770007A00816080937A0080917A00806880930B
:100780007A001092C100E091AF19F091B01982E0A7
:100790008083E091AB19F091AC191082E091AD1912
:1007A000F091AE198FEC80831092B719E091B319D4
:1007B000F091B41986E08083E091B119F091B219FB
:1007C000808180618083E091B119F091B2198081BC
:1007D00088608083E091B119F091B21980818068BE
:1007E0008083E091B119F091B21980818F7D80836F
:1007F00080E192E068DE87E192E065DEEBE6F1E021
:100800002491E5E2F1E08491882399F090E0880F4B
:10081000991FFC01E250FF4FA591B491FC01EC51EE
:10082000FF4F859194918FB7F894EC91E22BEC9364
:100830008FBF80E1809391001092900083E08093BD
:100840001E0284ED90E390931D0280931C0290930E
:1008500097008093960083E18093910084E292E078
:1008600090931B0280931A0281E080937100E4E967
:10087000F1E02491EEE4F1E084918823C9F090E066
:10088000880F991FFC01E250FF4F45915491FC01E4
:10089000EC51FF4FA591B4919FB7F894FA01808174
:1008A0002095822380838C91E22FE823EC939FBFD5
:1008B0009AE0892E912CA12CB12CF8948091921958
:1008C00090919319A0919419B09195197894809171
:1008D0009119882309F450C0E0918F19F091901973
:1008E000EE0FFF1FE15EFD4FC080D1800D2C000C8C
:1008F000EE08FF08F7FE25C0E0919F19F091A019BE
:100900000190F081E02D6DE28FE999E119952227A0
:100910003327A9012C193D094E095F0919A28E013F
:100920000F5D1F4FCA01B901A501940154D0605D4C
:10093000F80162938F01211531054105510591F7A9
:1009400014C0A701960119A28E010F5D1F4FCA01A5
:10095000B901A50194013FD0605DF80162938F0158
:10096000211531054105510591F7C801ACDD87E13D
:1009700092E0A9DD109291192FDD9FCFEFE9F9E107
:100980001382128288EE93E0A0E0B0E08483958326
:10099000A683B78384E092E09183808385EC90E026
:1009A0009587848784EC90E09787868780EC90E039
:1009B000918B808B81EC90E0938B828B82EC90E02A
:1009C000958B848B86EC90E0978B868B118E128EA4
:1009D000138E148E0895A1E21A2EAA1BBB1BFD01D3
:1009E0000DC0AA1FBB1FEE1FFF1FA217B307E4070E
:1009F000F50720F0A21BB30BE40BF50B661F771F66
:100A0000881F991F1A9469F7609570958095909545
:100A10009B01AC01BD01CF010895EE0FFF1F881FA0
:100A20008BBF0790F691E02D199481E090E0F89447
:060A300000C0F894FFCFA6
:100A360000000000850102014F012D014101CB019B
:0A0A4600636F75636F75000D0A0001
:00000001FF
