:1000000007C1000033C1000031C100002FC1000052
:100010002DC100002BC1000029C1000027C1000034
:1000200025C1000023C1000021C100001FC1000044
:100030001DC100001BC1000019C1000017C1000054
:1000400015C1000013C1000011C100000FC1000064
:100050000DC100000BC1000009C1000003C3000076
:1000600005C1000003C1000001C10000FFC0000085
:10007000FDC00000FBC00000F9C00000F7C0000098
:10008000F5C00000F3C00000F1C00000EFC00000A8
:10009000EDC00000EBC00000E9C00000E7C00000B8
:1000A000E5C00000E3C00000E1C00000DFC00000C8
:1000B000DDC00000DBC00000D9C00000D7C00000D8
:1000C000D5C00000D3C00000D1C00000CFC00000E8
:1000D000CDC00000CBC00000C9C00000C7C00000F8
:1000E000C5C00000AF01B201A101A501A901E9014C
:1000F000B601BA01C001C401C801CE01D201D601C6
:10010000E901DC01E001E40100000A0B02090C0D29
:100110000E080703040100000000000000000000BA
:1001200000000000000000000000000000000000CF
:10013000000000001211100000000000000000008C
:1001400000000000000000000000000000000000AF
:100150002200250028002B002E003100340002016F
:100160000000050108010B01000021002400270008
:100170002A002D00300033000101000004010701B6
:100180000A0105050505070508080808020202021C
:100190000A0A080804040404010101010101010123
:1001A0000303030303030303040707070C0C0C0CEE
:1001B0000C0C0C0C020202020606060606060606D7
:1001C0000B0B0B0B0B0B0B0B010210202008081064
:1001D00020401020408002010201080402010102B7
:1001E0000408102040808040201008040201800490
:1001F00002018040201008040201080402010102EB
:100200000408102040800102040810204080C90426
:1002100011241FBECFEFD1E2DEBFCDBF00E00CBF87
:1002200012E0A0E0B2E0EEE2FAE000E00BBF02C0B4
:1002300007900D92A834B107D9F722E0A8E4B2E004
:1002400001C01D92AD36B207E1F711E0C8E0D1E080
:1002500000E005C021970109802FFE01DAD3C730E5
:10026000D10780E00807B1F747D2DFC3C9CE90E0DD
:10027000FC01E853FE4F2491FC01EE57FE4F8491A0
:10028000882399F090E0880F991FFC01E859FE4FF0
:10029000A591B491FC01E25BFE4F859194918FB7DB
:1002A000F894EC91E22BEC938FBF0895CF92DF92FC
:1002B000EF92FF920F931F93CF93DF936C017A011C
:1002C0008B01C0E0D0E0CE15DF0589F0D8016D913B
:1002D0008D01D601ED91FC910190F081E02DC601D8
:1002E0001995892B11F47E0102C02196ECCFC7012C
:1002F000DF91CF911F910F91FF90EF90DF90CF9002
:100300000895362F90E0FC01E85FFE4F4491FC0118
:10031000E853FE4F2491FC01EE57FE4F9491992330
:1003200009F46AC0442309F454C050E0FA0131973B
:10033000E231F10508F04DC08827EE58FF4F8F4F8E
:1003400068C3809180008F7707C0809180008F7D87
:1003500003C080918000877F809380003AC084B57D
:100360008F7702C084B58F7D84BD33C08091B0008B
:100370008F7703C08091B0008F7D8093B00029C03B
:10038000809190008F7707C0809190008F7D03C08F
:1003900080919000877F809390001BC08091A00087
:1003A0008F7707C08091A0008F7D03C08091A0004F
:1003B000877F8093A0000DC0809120018F7707C0B8
:1003C000809120018F7D03C080912001877F8093E1
:1003D0002001E92FF0E0EE0FFF1FE25BFE4FA59139
:1003E000B4918FB7F894EC91311103C020952E236E
:1003F00001C02E2B2C938FBF0895CF93DF93EC0178
:1004000060E08E817EDF61E08E817BDF60E08E8147
:1004100078DF8BE891E00197F1F7DF91CF910895B4
:10042000CF92DF92EF92FF920F931F93CF93DF93C0
:100430007C016C0187E0C80ED11CC0E0D0E0062F23
:1004400010E0B8010C2E02C0759567950A94E2F78A
:100450006170F60181916F0154DF2196C430D1059E
:1004600081F7C701DF91CF911F910F91FF90EF901E
:10047000DF90CF90C2CFCF92DF92EF92FF920F9397
:100480001F93CF93DF93EC01F62E642F8C8139DF1D
:100490008D818F3F11F060E034DF8F850F2D10E0EC
:1004A00084FF23C06E0187E0C80ED11CE12CF12C23
:1004B000B8010E2C02C0759567950A94E2F7617039
:1004C000F60181916F011DDFFFEFEF1AFF0A88E04F
:1004D000E816F10469F7CE01DF91CF911F910F91DA
:1004E000FF90EF90DF90CF9088CFB80184E07595B2
:1004F00067958A95E1F7CE0193DF6F2DCE01DF91ED
:10050000CF911F910F91FF90EF90DF90CF9088CF08
:1005100041E0B1DF81E090E0089540E0ACCFEF92A0
:10052000FF920F931F93CF93DF93EC01623018F08B
:100530008F8588608F876B8B1C8A80E48D8B80E130
:100540008E8B80E58F8B8C8192DE8D818F3F09F0C1
:100550008EDE8E818CDE7E0187E0E80EF11C00E0ED
:1005600010E08F8584FD03C084E090E002C088E045
:1005700090E0081719073CF4F70181917F0177DEBD
:100580000F5F1F4FEECF8BE39DE00197F1F760E027
:100590008C81B7DE60E08E81B4DE8D818F3F11F0FB
:1005A00060E0AFDE6F8564FD19C063E0CE0138DF27
:1005B0000BE416E4C8010197F1F763E0CE0130DFE8
:1005C000C8010197F1F763E0CE012ADF83E592E0ED
:1005D0000197F1F762E0CE0123DF13C06062CE0124
:1005E0009CDF8BE496E40197F1F76F856062CE01A2
:1005F00094DF83E592E00197F1F76F856062CE01A9
:100600008CDF6F856062CE0188DF84E0888B6CE0D0
:10061000CE0183DF61E0CE0180DF8BE39FE10197B4
:10062000F1F782E0898B66E0CE01DF91CF911F91D7
:100630000F91FF90EF9071CF089580E090E00895C2
:10064000009761F0FC0101900020E9F73197AF01BC
:10065000481B590BBC0185E592E028CE80E090E074
:100660000895DFD11F920F920FB60F9211242F938E
:100670003F938F939F93AF93BF9380914D0290913F
:100680004E02A0914F02B091500230914C0223E0F3
:10069000230F2D3720F40196A11DB11D05C026E8BA
:1006A000230F0296A11DB11D20934C0280934D0291
:1006B00090934E02A0934F02B09350028091480253
:1006C00090914902A0914A02B0914B020196A11D5E
:1006D000B11D8093480290934902A0934A02B093BF
:1006E0004B02BF91AF919F918F913F912F910F90AE
:1006F0000FBE0F901F901895CF93DF93CDB7DEB745
:10070000A1970FB6F894DEBF0FBECDBF789484B525
:10071000826084BD84B5816084BD85B5826085BDFD
:1007200085B5816085BD80916E00816080936E008B
:10073000109281008091810082608093810080917D
:10074000810081608093810080918000816080932E
:1007500080008091B10084608093B1008091B000EE
:1007600081608093B00080919100826080939100BD
:1007700080919100816080939100809190008160D0
:10078000809390008091A10082608093A10080916D
:10079000A10081608093A1008091A000816080937E
:1007A000A00080912101826080932101809121012C
:1007B00081608093210180912001816080932001DC
:1007C00080917A00846080937A0080917A008260C0
:1007D00080937A0080917A00816080937A00809182
:1007E0007A00806880937A001092C10062E085E50B
:1007F00092E095DEE1E0809168028111E0E0E19510
:10080000F0E0EB5AFD4F6489606885E592E085DE93
:100810008CE092E015DF98EEC92E93E0D92EE12C02
:10082000F12C2AE0422E512C612C712C30E0A32EA9
:1008300030E0B32E80E4982EE0916802E23010F4AC
:10084000E15001C0E1E0F0E0EB5AFD4F6489615FE7
:10085000606885E592E061DE2FB7F89460914D0203
:1008600070914E0280914F02909150022FBFA701CC
:100870009601ADD019A28E010F5D1F4FCA01B901BB
:10088000A3019201A4D0605DF80162938F0121154C
:1008900031054105510591F7CF01D2DEE0916802A3
:1008A000E23010F4E15001C0E1E0F0E0EB5AFD4F1E
:1008B0006489606885E592E030DE80917B00877F07
:1008C00080937B0090927C0080917A00806480937A
:1008D0007A0080917A0086FDFCCF8091780020918B
:1008E000790090E0922B9093520280935102893EBE
:1008F000F3E09F078CF4823391058CF08A3F9105D9
:100900008CF0823C21E0920784F08A38E2E09E0776
:100910007CF0823593407CF085E090E00EC080E072
:1009200090E00BC081E090E008C082E090E005C05C
:1009300083E090E002C084E090E0909354028093C2
:1009400053028330910579F034F48130910571F0D0
:10095000029779F005C08430910571F0059779F020
:100960008DE192E00EC084E292E00BC08CE292E056
:1009700008C083E392E005C08AE392E002C081E40C
:1009800092E05EDEA114B10409F456CF0E9400008B
:1009900051CFE5E5F2E01382128284E092E0918388
:1009A000808388E084838FEF858389E0868384E079
:1009B000878385E0808786E0818787E0828713864A
:1009C000148615861686178661E0CF01A8CDA1E2B0
:1009D0001A2EAA1BBB1BFD010DC0AA1FBB1FEE1FB9
:1009E000FF1FA217B307E407F50720F0A21BB30B04
:1009F000E40BF50B661F771F881F991F1A9469F780
:100A000060957095809590959B01AC01BD01CF01DB
:100A10000895EE0FFF1F881F8BBF0790F691E02D02
:0E0A2000199481E090E0F89400C0F894FFCFA4
:100A2E0000000000880256011D031C0350757368F8
:100A3E002074686520627574746F6E730052494736
:100A4E00485420004C45465420202000555020206C
:100A5E00202000444F574E20200053454C45435410
:080A6E00004E4F4E4520200010
:00000001FF
