:1000000084C00000B0C00000AEC00000ACC0000062
:10001000AAC00000A8C00000A6C00000A4C0000044
:10002000A2C00000A0C000009EC000009CC0000054
:100030009AC0000098C0000096C0000094C0000064
:1000400092C0000090C000001BC300008CC00000E4
:100050008AC0000088C0000086C00000C7C200003F
:1000600082C000008DC2000062C200007CC000009F
:100070007AC0000014C3000076C0000074C0000005
:1000800072C0000070C000006EC000006CC00000B4
:100090006AC0000068C0000066C0000064C00000C4
:1000A00062C0000060C000005EC000005CC00000D4
:1000B0005AC0000058C0000056C0000054C00000E4
:1000C00052C0000050C000004EC000004CC00000F4
:1000D0004AC0000048C0000046C0000044C0000004
:1000E00042C0000061646353746172745F75732C65
:1000F000206164634C617073655F75732C2061646B
:100100006356616C75650000F50411241FBECFEFC6
:10011000D1E2DEBFCDBF00E00CBF12E0A0E0B2E054
:10012000E4EAFAE000E00BBF02C007900D92A831AC
:10013000B107D9F720E2A8E1B2E001C01D92A237D1
:10014000B207E1F710E0C5E8D0E000E005C0219774
:100150000109802FFE0198D4C438D10780E0080738
:10016000B1F7B6D29DC44CCFCF92DF92EF92FF92FF
:100170000F931F93CF93DF936C017A018B01C0E043
:10018000D0E0CE15DF0589F0D8016D918D01D60143
:10019000ED91FC910190F081E02DC6011995892B1C
:1001A00011F47E0102C02196ECCFC701DF91CF91FF
:1001B0001F910F91FF90EF90DF90CF9008950895D9
:1001C00080E090E00895FC01538D448D252F30E0B0
:1001D000842F90E0821B930B541710F0CF96089554
:1001E00001970895FC01918D828D981761F0828DA1
:1001F000DF01A80FB11D5D968C91928D9F5F9F735B
:10020000928F90E008958FEF9FEF0895FC01918DFC
:10021000828D981731F0828DE80FF11D858D90E069
:1002200008958FEF9FEF0895FC01918D228D892F06
:1002300090E0805C9F4F821B91098F7399270895EE
:1002400085ED9FE1F1DF21E0892B09F420E0822F89
:100250000895FC01848DDF01A80FB11DA35ABF4F83
:100260002C91848D90E001968F739927848FA689B5
:10027000B7892C93A089B1898C9180648C93938DDC
:10028000848D981306C00288F389E02D80818F7DCC
:1002900080830895EF92FF920F931F93CF93DF9384
:1002A000EC0181E0888F9B8D8C8D981305C0E889C7
:1002B000F989808185FD23C0F62E0B8D10E00F5F3C
:1002C0001F4F0F731127E02E8C8DE8120BC00FB655
:1002D00007FCFACFE889F989808185FFF5CFCE0147
:1002E000B8DFF2CF8B8DFE01E80FF11DE35AFF4F0F
:1002F000F0820B8FEA89FB898081806207C0EE89DA
:10030000FF896083E889F98980818064808381E046
:1003100090E0DF91CF911F910F91FF90EF900895A2
:10032000CF93DF93EC01888D8823C1F0EA89FB89A4
:10033000808185FD05C0A889B9898C9186FD0EC094
:100340000FB607FCF5CF808185FFF2CFA889B98968
:100350008C9185FFEDCFCE017CDFE8CFDF91CF918F
:10036000089580E090E0892B19F06ADF811125C0A3
:1003700080E090E0892B41F080E090E0892B21F033
:100380000E94000081111CC080E090E0892B41F0A8
:1003900080E090E0892B21F00E940000811113C0C1
:1003A00080E090E0892BA1F080E090E0892B81F043
:1003B0000E94000081110AC008950E940000D8CF59
:1003C0000E940000E1CF0E940000EACF0C940000E0
:1003D00008953FB7F89480911D0290911E02A0915C
:1003E0001F02B091200226B5A89B05C02F3F19F02F
:1003F0000196A11DB11D3FBFBA2FA92F982F8827A5
:10040000820F911DA11DB11DBC01CD0142E0660FFF
:10041000771F881F991F4A95D1F708958F929F9251
:10042000AF92BF92CF92DF92EF92FF926B017C016D
:10043000D0DF4B015C01C114D104E104F104E9F007
:10044000C8DFDC01CB0188199909AA09BB09883EDC
:100450009340A105B10578F321E0C21AD108E10863
:10046000F10888EE880E83E0981EA11CB11CC1140F
:10047000D104E104F10421F7DECFFF90EF90DF908B
:10048000CF90BF90AF909F908F900895009761F0AC
:10049000FC0101900020E9F73197AF01481B590B8F
:1004A000BC0185ED9FE160CE80E090E008958F92E1
:1004B0009F92AF92BF920F931F93CF93DF93CDB7CD
:1004C000DEB7A1970FB6F894DEBF0FBECDBF19A25D
:1004D000423008F44AE08E010F5D1F4F842E912CAC
:1004E000A12CB12CA5019401ADD2E62FB901CA010E
:1004F00001501109EA3014F4E05D01C0E95CD80153
:10050000EC93232B242B252B69F7C801BFDFA19681
:100510000FB6F894DEBF0FBECDBFDF91CF911F9114
:100520000F91BF90AF909F908F900895B5D21F927A
:100530000F920FB60F9211240BB60F922F933F9389
:100540004F935F936F937F938F939F93AF93BF93DB
:10055000EF93FF9385ED9FE17CDEFF91EF91BF91DB
:10056000AF919F918F917F916F915F914F913F914B
:100570002F910F900BBE0F900FBE0F901F901895EC
:100580001F920F920FB60F9211240BB60F922F935A
:100590008F939F93EF93FF93E091E51FF091E61FF8
:1005A0008081E091EB1FF091EC1F82FD12C09081E1
:1005B0008091EE1F8F5F8F732091EF1F821751F094
:1005C000E091EE1FF0E0EB52F04E958F8093EE1F1E
:1005D00001C08081FF91EF919F918F912F910F909A
:1005E0000BBE0F900FBE0F901F9018951F920F9289
:1005F0000FB60F9211242F933F938F939F93AF9336
:10060000BF938091190290911A02A0911B02B091A0
:100610001C023091180223E0230F2D3720F401969D
:10062000A11DB11D05C026E8230F0296A11DB11D15
:10063000209318028093190290931A02A0931B0230
:10064000B0931C0280911D0290911E02A0911F0286
:10065000B09120020196A11DB11D80931D029093BF
:100660001E02A0931F02B0932002BF91AF919F91F1
:100670008F913F912F910F900FBE0F901F90189563
:100680001F920F920FB60F9211248F9381E08093E7
:1006900024028F910F900FBE0F901F9018951F92FC
:1006A0000F920FB60F9211248F939F9381E0809346
:1006B0002302809178009091790090932202809398
:1006C00021029F918F910F900FBE0F901F90189550
:1006D000CF93DF93CDB7DEB7C656D1090FB6F894E6
:1006E000DEBF0FBECDBF789484B5826084BD84B573
:1006F000816084BD85B5826085BD85B5816085BD1D
:1007000080916E00816080936E00109281008091D4
:10071000810082608093810080918100816080935C
:100720008100809180008160809380008091B10081
:1007300084608093B1008091B00081608093B000AC
:1007400080919100826080939100809191008160FE
:1007500080939100809190008160809390008091BF
:10076000A10082608093A1008091A10081608093AC
:10077000A1008091A00081608093A0008091210160
:100780008260809321018091210181608093210109
:100790008091200181608093200180917A008460A3
:1007A00080937A0080917A00826080937A008091B1
:1007B0007A00816080937A0080917A0080688093CB
:1007C0007A001092C10068EE73E080E090E026DECF
:1007D000E091E51FF091E61F82E08083E091E11F48
:1007E000F091E21F1082E091E31FF091E41F80E19D
:1007F00080831092ED1FE091E91FF091EA1F86E0DF
:100800008083E091E71FF091E81F80818061808301
:10081000E091E71FF091E81F808188608083E0917C
:10082000E71FF091E81F808180688083E091E71FD7
:10083000F091E81F80818F7D808304EE10E0F80145
:10084000649161112AC082E192E020DE1092810061
:10085000109280008FEF86BB87EC90E09093890028
:100860008093880090938B0080938A0080E480932B
:100870007C0088EA80937A0080917A008760809378
:100880007A0085E080937B0039E2C32ED12CCC0E18
:10089000DD1EF8E2CF0ED11CA5C0E091D51FF0916E
:1008A000D61F0190F081E02D85ED9FE119950F5F36
:1008B0001F4F892B09F0C3CFC6CFFC01EE0FFF1FDE
:1008C000EB5DFD4F21E030E03183208301968F3CCA
:1008D00037E0930791F7F894109285001092840006
:1008E00084E080936F0078949AE0909381008E0169
:1008F000075D1F4FFE0131963F019E012F5A3F4F6A
:10090000A7963FAF2EAFA79759014F01780180916D
:1009100024028823E1F35DDD1B012C018091230279
:100920008823E1F356DDF7012192319241925192F1
:100930007F01F40161937193819391934F01F89436
:10094000109223021092240280912102909122029F
:10095000F501819391935F017894EC14FD04B9F64D
:1009600010926F001092810082E192E08FDDF80119
:1009700081909190A190B1908F014AE0C501B4019E
:1009800096DD85E192E082DDF30181919191A19163
:10099000B1913F01BC01CD01681979098A099B0910
:1009A0004AE085DD85E192E071DDA796EEADFFAD11
:1009B000A79761917191A796FFAFEEAFA79780E0DF
:1009C00090E04AE074DD82E192E060DD0C151D05E7
:1009D00071F685ED9FE1A4DC68E873E180E090E0CA
:1009E0001DDDBFDC80E090E068CFE5EDFFE1138224
:1009F000128288EE93E0A0E0B0E084839583A68322
:100A0000B78384E092E09183808385EC90E09587C2
:100A1000848784EC90E09787868780EC90E0918BC8
:100A2000808B81EC90E0938B828B82EC90E0958BB5
:100A3000848B86EC90E0978B868B118E128E138EB2
:100A4000148E0895A1E21A2EAA1BBB1BFD010DC036
:100A5000AA1FBB1FEE1FFF1FA217B307E407F5076E
:100A600020F0A21BB30BE40BF50B661F771F881F4A
:100A7000991F1A9469F760957095809590959B01E0
:100A8000AC01BD01CF010895EE0FFF1F881F8BBF82
:100A90000790F691E02D199481E090E0F89400C061
:040AA000F894FFCFF8
:100AA400000000004A01B400E30090011401F200C8
:080AB40006010D0A002C2000D0
:00000001FF
